:020000021000EC
:10000000401DFE1FCDE801000DE70100E152010097
:10001000DBE80100DBE80100DBE80100DBE80100D0
:10002000000000000000000000000000DBE801000C
:10003000DBE80100000000002352010081EE010016
:100040006DC001009DBF010029C1010073C1010005
:10005000C5B801001FB9010005E0010041D701004A
:1000600005DF010025C9010015C8010059D60100AE
:10007000BBC301005BC3010039C4010081C401009E
:10008000BBC301005BC3010039C4010081C401008E
:100090008FE201008DE301003DE401008DE30100EA
:1000A0003DE40100BBC301005BC3010039C4010092
:1000B00081C4010081D4010081D4010081D40100F8
:1000C00081D40100BBC301005BC3010039C401003E
:1000D00081C40100E5DD010053B50100ABB50100AD
:1000E0000000000000000000000000000000000010
:1000F0000000000000000000000000000000000000
:1001000000000000000000000000000000000000EF
:1001100000000000000000000000000000000000DF
:10040000FFFFFFFFFFFDFFFFFCFFFFFFFFFFFFFF01
:10041000FCFFFFFFFFFFFFFFFCFFFF00FFFFFF00F0
:10042000FCFF0F20FFFF0F20FCFF7F40FFFF7F40FE
:10043000FCFF0D40FFFF0D40FFFFFFFFFFFFFFFF31
:10044000FFFFFFFFFFFFFFFFFFFFFFFFFFFFFFFFBC
:10045000FFFFFFFFFFFFFFFFFFFFFFFFFFFFFFFFAC
:10046000FFFFFFFFFFFFFFFFFFFFFFFFFFFFFFFF9C
:10047000FFFFFFFFFFFFFFFFFFFFFFFFFFFFFFFF8C
:10048000FFFFFFFFFFFFFFFFFFFFFFFFFFFFFFFF7C
:10049000FFFFFFFFFFFFFFFFFFFFFFFFFFFFFFFF6C
:1004A000FFFFFFFFFFFFFFFFFFFFFFFFFFFFFFFF5C
:1004B000FFFFFFFFFFFFFFFFFFFFFFFFFFFFFFFF4C
:1004C000FFFFFFFFFFFFFFFFFFFFFFFFFFFFFFFF3C
:1004D000FFFFFFFFFFFFFFFFFFFFFFFFFFFFFFFF2C
:1004E000FFFFFFFFFFFFFFFFFFFFFFFFFFFFFFFF1C
:1004F000FFFFFFFFFFFFFFFFFFFFFFFFFFFFFFFF0C
:1005000010B5054C237833B9044B13B10448AFF34D
:1005100000800123237010BD200DFE1F000000008D
:100520005454020008B5034B1BB103490348AFF311
:10053000008008BD00000000240DFE1F545402007E
:1005400080B500AF0B4802F02DFA07F031FC012115
:1005500040F209200AF048F84FF4FA7003F0E2FF85
:10056000002140F209200AF03FF84FF4FA7003F03E
:10057000D9FFECE7280C020080B400AF034B1B68E6
:100580001846BD465DF8047B704700BF3C0DFE1F5A
:1005900080B582B000AF1B4B1B68002B02D0194BFB
:1005A0001B68984704F026FE7860174B1B680133E0
:1005B000154A136003F090FD38603B685B6D5A1E6E
:1005C0003B685A653B685B6D002B12D13B681A6D26
:1005D0003B685A653B6893F8343043F00803DAB25D
:1005E0003B6883F83420786804F008FE03F058FA7A
:1005F00002E0786804F002FE04F06EFC00BF0837E9
:10060000BD4680BD400DFE1F3C0DFE1F80B485B071
:1006100000AF78607B68002B03DA4FF0FF33FB609C
:1006200027E07B68164A82FB03129211DB17D31A6C
:100630004FF47A7202FB03F3FB607A68104B83FB82
:1006400002139911D317CB1A4FF47A7101FB03F3FC
:10065000D31A4FF47A7202FB03F303F2E733084A2A
:1006600082FB03129211DB17D31A1A46FB6813445C
:10067000FB60FB6818461437BD465DF8047B704785
:10068000D34D621080B400AF00231846BD465DF81C
:10069000047B704780B400AF00231846BD465DF868
:1006A000047B704780B400AF00231846BD465DF858
:1006B000047B704780B400AF00231846BD465DF848
:1006C000047B704780B582B000AF094B7B6005E0CA
:1006D0007B681B6898477B6804337B607B68054AAE
:1006E0009342F5D300BF00BF0837BD4680BD00BFB1
:1006F000180C02001C0C020080B582B000AF094B40
:100700007B6005E07B681B6898477B6804337B60EF
:100710007B68054A9342F5D300BF00BF0837BD464A
:1007200080BD00BF1C0C0200240C020080B500AF8D
:1007300000F036F80023184680BD80B582B000AFC7
:100740007860FFF7D9FF0AF09EFD00BF0837BD466D
:1007500080BDFFFF80B584B002AF142301930A234C
:1007600000934FF40063002209490A4803F078FD22
:1007700078607B68002B04D1D6220749074802F035
:100780006FFA786803F0B4FC00BF0837BD4680BD3F
:100790003B070100400C0200580C0200480C02000C
:1007A00080B500AF04F026FD0EF074FB01F0C6FB2F
:1007B00004F0D2FC03F032F9FFF7CCFF04F0E6FCC2
:1007C00000F08AFA03F04EF90023184680BD80B588
:1007D00084B000AFF860B9601346FB80FB68002B63
:1007E00002D14FF0FF3318E0B86800F01AF8034662
:1007F000002B02D04FF0FF330FE0FB68BA680921ED
:10080000184602F067FEFB68FA88DA82FB6800226D
:100810009A76FB6800221A83002318461037BD46DB
:1008200080BD80B582B000AF78600921786802F0A1
:10083000C3FF034618460837BD4680BD80B584B067
:1008400000AF78600B467B800023FB607B68002B49
:1008500004D1D0224349444802F002FA7B6818468A
:1008600002F090FF0346092B04D0D1223D493F48B6
:1008700002F0F6F97B68DB8A03F01003002B1AD133
:100880007B685B6A002B0FD07B685B6A786898474F
:10089000F860FB68002B07D07B68FA68194634487B
:1008A00002F080F8FB6859E07B68DB8A43F01003B4
:1008B0009AB27B68DA827B68DB8A03F00803002B3C
:1008C00008D07B681B8B03F00803002B02D06FF06D
:1008D000060343E07B681B8B03F00803002B0AD060
:1008E0007B681A8B7B8853409BB21A4640F60F7385
:1008F0001340002B13D07B689B6A002B07D07B68CA
:100900009B6A7A88114678689847F86007E07B8888
:1009100023F0F0031B051B0D9AB27B681A83FB685A
:10092000002B03D0FB6813F1060F16D17B681B8BDD
:1009300043F008039AB27B681A837B689B7E01337D
:10094000DAB27B689A767B689B7E002B05D140F2F9
:1009500003120449074802F083F9FB681846103770
:10096000BD4680BD600D02006C0C02007C0C0200D4
:10097000140D02004C0D020080B584B000AF786009
:100980000023FB607B68002B05D14FF48B721E495E
:100990001E4802F065F97B68184602F0F3FE034634
:1009A000092B05D040F217121749194802F058F9DF
:1009B0007B689B7E002B02D14FF0FF331FE07B68EA
:1009C0009B7E013BDAB27B689A767B689B7E002B2C
:1009D00001D0002313E07B68DB6A002B04D07B6826
:1009E000DB6A78689847F860FB68002B03D0FB68E7
:1009F00013F1060F02D17B6800221A83FB681846A8
:100A00001037BD4680BD00BF700D02006C0C0200A7
:100A10007C0C020090B585B000AFF860B9607A60D8
:100A20003B60FB68002B05D14FF4A27218491948AE
:100A300002F016F9FB68184602F0A4FE0346092BE3
:100A400005D040F245121249134802F009F9FB683B
:100A50009B7E002B05D14FF0FF3001F087F800237B
:100A600011E0FB681B6B002B08D0FB681C6B3B681C
:100A70007A68B968F868A047034604E06FF005009B
:100A800001F074F8002318461437BD4690BD00BF2E
:100A9000800D02006C0C02007C0C020090B585B049
:100AA00000AFF860B9607A603B60FB68002B05D14D
:100AB00040F26F121849194802F0D2F8FB68184644
:100AC00002F060FE0346092B05D04FF4B8721249BC
:100AD000134802F0C5F8FB689B7E002B05D14FF050
:100AE000FF3001F043F8002311E0FB685B6B002B43
:100AF00008D0FB685C6B3B687A68B968F868A04707
:100B0000034604E06FF0050001F030F800231846BA
:100B10001437BD4690BD00BF900D02006C0C020062
:100B20007C0C020080B582B000AF786039607B68D1
:100B3000002B05D140F2AF120C490D4802F090F89D
:100B40007B68184602F01EFE0346092B05D04FF4C1
:100B5000D8720649074802F083F87B683A68DA6180
:100B6000002318460837BD4680BD00BFA00D020017
:100B70006C0C02007C0C020080B483B000AF786083
:100B800039607B681B683A685A607B681A683B6802
:100B90001A607B683A681A603B687A685A6000BFDE
:100BA0000C37BD465DF8047B704780B483B000AF5E
:100BB00078607B681B687A6852685A607B685B68FB
:100BC0007A6812681A607B687A685A607B685A682B
:100BD0007B681A6000BF0C37BD465DF8047B704728
:100BE00080B582B000AF78607B6814331946034843
:100BF000FFF7C2FF00BF0837BD4680BDC807FE1F14
:100C000080B584B000AF0023FB600D4BBB60BB68B8
:100C10001B68BA689A420ED0BB681B68143BFB6025
:100C200004F0E8FA7860FB6814331846FFF7BDFF5C
:100C3000786804F0E3FAFB6818461037BD4680BDBB
:100C4000C807FE1F80B584B000AFFFF7D9FFF8607A
:100C5000FB68002B1FD0FB68D3F88430BB60F868BA
:100C600002F072FD78607B68012B02D1F86802F017
:100C700093FCBB68002B02D0BB68F86898477B6880
:100C8000002BE2D1FB689B6A184601F0B3FFF868BD
:100C900002F01CFDD9E700BF00BF1037BD4680BD84
:100CA00080B584B000AF78600023FB600CE0094A97
:100CB000FB6852F82330BB60BB68002B01D0BB68D7
:100CC0009847FB680133FB60FB68032BEFD9FFF704
:100CD000B9FFE9E7D00EFE1F80B588B004AF00234E
:100CE000FB6028E0381DFB68174A082101F0FEFD73
:100CF000FB688C2202FB03F3144A9818FB681B0262
:100D0000134A1344391D202203921F2202924FF4EA
:100D100080720192009300230E4A03F0A5F9FB684C
:100D20008C2202FB03F3094A1344184603F0E0F94E
:100D3000FB680133FB60FB68002BD3D000BF00BF12
:100D40001037BD4680BD00BFBC0D0200440DFE1F24
:100D5000D00DFE1FA10C010080B483B000AF7860FD
:100D60007B687A685A607B685A687B681A6000BF43
:100D70000C37BD465DF8047B704780B483B000AF8C
:100D8000786039607B681B683A685A607B681A68CB
:100D90003B681A607B683A681A603B687A685A60F8
:100DA00000BF0C37BD465DF8047B704780B483B04C
:100DB00000AF786039607B685B683A681A607B686E
:100DC0005A683B685A607B683A685A603B687A6840
:100DD0001A6000BF0C37BD465DF8047B704780B4D5
:100DE00083B000AF78607B681B687A6852685A608D
:100DF0007B685B687A6812681A607B687A685A60F8
:100E00007B685A687B681A6000BF0C37BD465DF886
:100E1000047B704780B483B000AF78607B681B6848
:100E20007A689A420CBF01230023DBB218460C37C4
:100E3000BD465DF8047B704780B582B000AF786036
:100E40007B6814331846FFF787FF002318460837DE
:100E5000BD4680BD80B588B000AFF860B9603B602A
:100E60001346FB71BB6893F8343003F00403002B86
:100E700009D13968B86803F02BFCB861BB69002B55
:100E800001D0BB693FE0FB79002B02D0012B07D0DA
:100E900031E0BB6814331946F868FFF787FF31E08B
:100EA000FB681B68FB6117E0FB69143B7B61BB6857
:100EB00093F835207B6993F835309A4209D27B69E3
:100EC00003F11402BB68143319461046FFF76EFF96
:100ED00006E0FB691B68FB61FA69FB689A42E3D193
:100EE000FA69FB689A420CD1BB6814331946F8685A
:100EF000FFF75CFF05E0B2220549064801F0B0FEAD
:100F000000E000BF002318462037BD4680BD00BF6B
:100F1000F8120200C40D020080B584B000AF786002
:100F20007B681B68143BFB60FB6800221A63F8684F
:100F300003F03CFC002318461037BD4680BD80B549
:100F400084B000AF786010E004F054F9F8607B687A
:100F50001B68143BBB60BB684FF0FF321A63B86874
:100F600003F024FCF86804F049F97868FFF752FFB1
:100F70000346002BE8D0002318461037BD4680BD3D
:100F800080B584B000AFF860B9607A60FB70FB6830
:100F9000002B05D140F23B121749184801F060FEC2
:100FA0007B68B3F5803F05D34FF49E721249144815
:100FB00001F056FEFB78002B08D0FB78012B05D002
:100FC00040F23D120C490F4801F04AFEFB68BA6836
:100FD0000221184602F07EFAFB681846FFF72CFF44
:100FE0007B689AB2FB689A83FB68FA785A7200238E
:100FF00018461037BD4680BDCC120200C80D020055
:10100000D80D0200EC0D020080B582B000AF786010
:101010007B68002B05D140F265121649164801F095
:101020001FFE7B68184602F0ADFB0346022B05D07D
:101030004FF4B3720F49114801F012FE7B68184655
:1010400002F082FB0346002B05D140F267120949EA
:101050000B4801F005FE7B6814331846FFF76FFF5D
:101060007B68184602F098FA002318460837BD46F8
:1010700080BD00BFD8120200C80D0200280E020079
:10108000700E020080B58CB000AFF860B9607A6075
:10109000FB68002B05D140F2F9126649664801F061
:1010A000DFFDFB68184602F06DFB0346022B05D0FE
:1010B0004FF4FD725F49614801F0D2FD604B1B683F
:1010C000002B04D05E4B1B68FA6810469847FB68FB
:1010D0009B8B002B51D1BB68002B4ED000F022FD22
:1010E000F86204F087F8B86202F08EFE0346002B27
:1010F00009D05049534801F055FC40F2FF124D49C8
:10110000514801F0ADFDFB6A012B09D149494F4817
:1011100001F048FC40F2FF1246494B4801F0A0FDA7
:1011200004F068F8786202F0D7FF0346002B09D17B
:101130004049474801F036FC40F2FF123D49424821
:1011400001F08EFD04F056F8386200F0D7FC03463B
:10115000002B09D037493F4801F024FC40F2FF1230
:101160003449394801F07CFD386A04F047F8786A60
:1011700004F044F8B86A04F041F804F03BF8F86170
:10118000FB689B8B002B09D0FB689B8B013B9AB2C1
:10119000FB689A83F86904F031F83DE0BB68002BE6
:1011A00005D1F86904F02AF86FF001033EE002F07F
:1011B00093FFB861BB696FF008021A63FB6803F123
:1011C0001400FB685A7A7B68B969FFF743FE7861BF
:1011D0007B69002B04D0F86904F010F87B6925E0E6
:1011E000BB68002B0CDDBB69583307F108020021F6
:1011F000184603F0DBFDBB695833184603F074FC56
:10120000F86903F0FBFF02F04BFCBB691B6B002B82
:1012100002D0BB691B6B09E00F4B1B68002B04D08D
:101220000D4B1B68FA681046984700231846303764
:10123000BD4680BDE8120200C80D0200280E020063
:10124000B80FFE1F040F0200C40D0200300F020091
:10125000580F0200A00E0200BC0FFE1F80B582B026
:1012600000AF78603960022239687868FFF70AFFBA
:10127000034618460837BD4680BDFFFF80B584B0E1
:1012800000AF78607B68002B05D140F287222749A8
:10129000274801F0E5FC7B68184602F073FA034624
:1012A000022B05D04FF422722049224801F0D8FCCD
:1012B000214B1B68002B04D01F4B1B687A6810461B
:1012C00098470023FB6003F095FFB8607B681433F8
:1012D0001846FFF79FFD0346002B07D17B681433A8
:1012E0001846FFF719FE0123FB6012E07B689B8B19
:1012F0004FF6FF72934206D07B689B8B01339AB204
:101300007B689A8305E0B86803F078FF6FF002030A
:1013100008E0B86803F072FFFB68012B01D102F00E
:10132000BFFB002318461037BD4680BD0C130200DA
:10133000C80D0200280E0200C00FFE1F80B584B049
:1013400000AF78607B6814331846FFF763FD0346EF
:10135000002B09D17B685B69143BFB60FB6893F849
:1013600035207B685A7702E07B68FF225A777B68DA
:101370005B7F18461037BD4680BD80B487B000AF94
:10138000786000237B610023FB607B6893F8363034
:10139000FB747B68DB6B7B6115E07B69243BFB6046
:1013A000FB685B7FFB72FB681B7FFA7A934228BF66
:1013B0001346FB72FA7CFB7A9A4201D9FB7AFB74E2
:1013C0007B691B687B617B683C337A699A42E4D114
:1013D000FB7C18461C37BD465DF8047B704780B522
:1013E00088B000AFF8600B467A60FB7207F10B0320
:1013F0001A460221F86803F0A5F8FB6893F8343028
:1014000003F00403002B39D0FB685B6CFB61FB69C4
:10141000002B33D0F86902F0B5F90346032B2DD128
:10142000FB69BB61FB6814331846FFF7D8FCBB6946
:1014300003F11400BB695A7A7B68F968FFF70AFD6B
:1014400078617B69002B18D1B869FFF777FFBB691A
:101450001B6A1846FFF791FF0346FB74BB691B6AC2
:1014600093F83530FA7C9A4208D0BB691B6AF97C44
:101470007A681846FFF7B3FF00E000BF2037BD468B
:1014800080BDFFFF80B584B000AFF860B96013463F
:10149000FB71FB68002B05D140F2693213491448F7
:1014A00001F0DEFBFB68BA680321184602F012F86F
:1014B000FB681846FFF7C0FCFB6800221A62FB6855
:1014C000FF225A77FB6800229A77FB68FF221A777F
:1014D000FB6824331846FFF73FFCFB6801225A7271
:1014E000002318461037BD4680BD00BF1C13020004
:1014F000900F020080B586B000AF7860396000239D
:101500007B613B6814331846FFF769FC7B681B6AF4
:1015100093F835203B6893F835309A4201D1012386
:101520007B617B6814331846FFF774FC0346002B7D
:1015300009D17B685B69143B3B613B6993F83520BB
:101540007B685A7702E07B68FF225A777B69002B21
:1015500014D07B681B6A1846FFF70FFF0346FB7326
:101560007B681B6A93F83530FA7B9A4206D07B6819
:101570001B6AF97B02221846FFF731FF00BF1837BC
:10158000BD4680BD80B58EB000AFF860B9607A60AE
:1015900000F0C8FAF86203F02DFEB86202F034FCE5
:1015A0000346002B09D0A349A34801F0FBF940F200
:1015B0009142A049A14801F053FBFB6A012B09D1DC
:1015C0009C499F4801F0EEF940F2914299499B48AD
:1015D00001F046FB03F00EFE786202F07DFD03464B
:1015E000002B09D19349974801F0DCF940F2914270
:1015F0009049924801F034FB03F0FCFD386200F0A2
:101600007DFA0346002B09D08A498F4801F0CAF9B8
:1016100040F291428749894801F022FB386A03F081
:10162000EDFD786A03F0EAFDB86A03F0E7FDFB68B8
:10163000002B05D140F294427E49844801F010FB12
:10164000FB68184602F09EF80346032B05D040F2D3
:10165000954278497E4801F003FB02F03DFDF861B8
:1016600003F0C8FD38637B4B1B68002B04D0794B1B
:101670001B68FA6810469847FB6900221A63FB68EA
:101680001B6AFA699A4210D1FB689B7FFF2B06D038
:10169000FB689B7F0133DAB2FB689A77DCE0386B3A
:1016A00003F0ACFD6FF00203E3E0FB681B6A002B64
:1016B00026D1FB68FA691A62FB68FF225A77FB6839
:1016C00001229A77FB681B7FFF2B0FD0FB681A7FE4
:1016D000FB681B6A93F835309A4207D2FB68186A98
:1016E000FB681B7F7A681946FFF779FEFB6903F1F7
:1016F0003C02FB68243319461046FFF73EFBABE083
:10170000BB68002B09D1FB696FF001021A63386BCB
:1017100003F074FD6FF00103ABE0FB6993F8353023
:10172000FB76FB6803F11400FB685A7A7B68F96961
:10173000FFF790FB78617B69002B04D0386B03F0D6
:101740005DFD7B6995E0FA68FB695A64FB685B7F25
:10175000FA7E9A4211D2FB68FA7E5A77FB685A7F6A
:10176000FB681B6A93F835309A4206D2FB681B6A05
:10177000F97E02221846FFF732FEBB68002B0CDD13
:10178000FB69583307F108020021184603F00EFBED
:10179000FB695833184603F0A7F9386B03F02EFDA8
:1017A00002F07EF903F026FD3863FB691B6B002B0A
:1017B00052D000237B63FB681B6A93F83520FB69DA
:1017C00093F835309A4201D101237B63FB681433CF
:1017D0001846FFF71FFB0346002B09D1FB685B6926
:1017E000143B3B613B6993F83520FB685A7702E074
:1017F000FB68FF225A777B6B002B14D0FB681B6AB7
:101800001846FFF7BAFD0346FB76FB681B6A93F8A0
:101810003530FA7E9A4206D0FB681B6AF97E0222B6
:101820001846FFF7DCFD386B03F0E8FCFB691B6B27
:101830001FE000BF2C130200040F0200C40D0200C1
:10184000300F0200580F0200A00E0200900F02009D
:10185000A40F0200B80FFE1F386B03F0CFFC074B3C
:101860001B68002B04D0054B1B68FA68104698478C
:10187000002318463837BD4680BD00BFBC0FFE1F91
:1018800080B582B000AF786039600222396878682C
:10189000FFF778FE034618460837BD4680BDFFFFB8
:1018A00080B58AB000AF78607B68002B05D140F22C
:1018B00083526B496B4801F0D3F97B68184601F0FD
:1018C00061FF0346032B05D040F284526449664809
:1018D00001F0C6F900237B6203F08CFC386202F051
:1018E000FBFB0346002B09D15D49604801F05AF823
:1018F00040F289525A495E4801F0B2F903F07AFC8D
:10190000F86100F0FBF80346002B09D05449594810
:1019100001F048F840F289525149554801F0A0F9C8
:10192000F86903F06BFC386A03F068FC02F0D4FB42
:10193000B86103F05FFC78614F4B1B68002B04D04B
:101940004D4B1B687A68104698477B681B6ABA69DA
:101950009A4209D0BB694FF0FF321A63786903F0ED
:101960004DFC4FF0FF3376E07B689B7F013BDAB2A2
:101970007B689A777B689B7F002B63D17B682433DD
:101980001846FFF72CFA7B681B7FFF2B06D1BB693B
:1019900093F835207B685B7F9A420FD1FF23FB725F
:1019A000B869FFF7EAFC0346FB7207F10B031A461E
:1019B0000221B86902F0C6FD01237B627B68143303
:1019C0001846FFF727FA0346002B35D17B685B6981
:1019D000143B3B613B6914331846FFF700FA7B6800
:1019E0003A691A627B6801229A773B6903F13C02EB
:1019F0007B68243319461046FFF7BFF93B69002284
:101A00005A64386902F0D2FE7B6814331846FFF737
:101A100001FA0346002B09D17B685B69143BFB602C
:101A2000FB6893F835207B685A7702E07B68FF22D9
:101A30005A7701237B6205E07B6800221A627B688B
:101A4000FF225A77786903F0D9FB7B6A012B01D119
:101A500002F026F8002318462837BD4680BD00BF97
:101A60003C130200900F0200A40F0200580F020066
:101A7000C40D0200A00E0200C00FFE1F80B582B090
:101A800000AF03F0B7FB78600A4B1B78DBB2013381
:101A9000DAB2084B1A70084B1B68002B02D0064BB9
:101AA0001B689847786803F0A9FB00BF0837BD465C
:101AB00080BD00BFE80EFE1FE00EFE1F80B582B0A5
:101AC00000AF03F097FB78600A4B1B68002B02D035
:101AD000084B1B689847084B1B78DBB2013BDAB216
:101AE000054B1A70786803F089FB00BF0837BD46C4
:101AF00080BD00BFE40EFE1FE80EFE1F80B582B061
:101B000000AF03F077FB7860054B1B78FB707868BB
:101B100003F074FBFB7818460837BD4680BD00BF54
:101B2000E80EFE1F80B400AF00231846BD465DF8E6
:101B3000047B704780B483B000AF78607B68002B73
:101B400002DA7B685B427B607B680B2B02DD064B15
:101B5000DB6A03E0044A7B6852F8233018460C37EE
:101B6000BD465DF8047B7047D007FE1F80B584B08A
:101B700000AF78600023FB60FFF7C0FF0346002B37
:101B800003D00A4A7B6813600CE002F0A5FAF86003
:101B9000FB68002B03D1054A7B68136002E0FB68F9
:101BA0007A681A631037BD4680BD00BFEC0EFE1F79
:101BB00080B582B000AF00237B60FFF79FFF034634
:101BC000002B01D0074B09E002F086FA78607B68B1
:101BD000002B02D07B68303300E0024B18460837F8
:101BE000BD4680BDEC0EFE1F80B48BB000AFF86028
:101BF000B9607A6000237B62FB683B6200237B61F3
:101C00000023FB61BB68FB767B68032B44D9FB6830
:101C100003F00303002B3FD1FB68FB6100237B62D1
:101C200008E007F114027B6A1344FA7E1A707B6A9B
:101C300001337B627B6A032BF3D916E0FB691A1D23
:101C4000FA617A691A60FB691A1DFA617A691A6089
:101C5000FB691A1DFA617A691A60FB691A1DFA613B
:101C60007A691A607B68103B7B607B680F2BE5D834
:101C700007E0FB691A1DFA617A691A607B68043B08
:101C80007B607B68032BF4D8FB693B6204E03B6A12
:101C90005A1C3A62FA7E1A707B685A1E7A60002BD0
:101CA000F5D1FB6818462C37BD465DF8047B7047BC
:101CB00080B48BB000AFF860B9607A60FB687B627B
:101CC000BB683B620023FB610023BB617B687B61D7
:101CD0007B690F2B4DD93A6A7B6A134303F00303E8
:101CE000002B46D17B6AFB613B6ABB6122E0BA698B
:101CF000131DBB61FB69191DF96112681A60BA698D
:101D0000131DBB61FB69191DF96112681A60BA697C
:101D1000131DBB61FB69191DF96112681A60BA696C
:101D2000131DBB61FB69191DF96112681A607B699B
:101D3000103B7B617B690F2BD9D80AE0BA69131D70
:101D4000BB61FB69191DF96112681A607B69043B6C
:101D50007B617B69032BF1D8FB697B62BB693B62CA
:101D600007E03A6A531C3B627B6A591C796212781D
:101D70001A707B695A1E7A61002BF2D1FB681846F3
:101D80002C37BD465DF8047B704780B487B000AF48
:101D9000F860B9607A60FB687B61BB683B613A6957
:101DA0007B699A4226D23A697B6813447A699A42DF
:101DB00020D27A697B6813447B613A697B6813445B
:101DC0003B6109E03B69013B3B617B69013B7B6116
:101DD0003B691A787B691A707B685A1E7A60002BFF
:101DE000F0D10CE03A69531C3B617B69591C796165
:101DF00012781A707B685A1E7A60002BF2D1FB6849
:101E000018461C37BD465DF8047B704780B487B028
:101E100000AFF860B9607A607B68002B21D0FB6866
:101E20007B61BB683B613A69531C3B617B69591C10
:101E3000796112781A701B78002B0CD104E07B6951
:101E40005A1C7A6100221A707B68013B7B607B68B8
:101E5000002BF4D105E07B68013B7B607B68002BA5
:101E6000E1D1FB6818461C37BD465DF8047B70471E
:101E700080B487B000AFF860B9607A600023FB756A
:101E800015E0FB681A78BB68591CB9601B78D31A37
:101E9000DBB2FB7597F91730002B0BD1FB685A1C8E
:101EA000FA601B78002B05D07B68013B7B607B6868
:101EB000002BE6D197F9173018461C37BD465DF860
:101EC000047B704780B483B000AF7860396005E070
:101ED0007B6801337B603B6801333B607B681B7828
:101EE000002B05D07B681A783B681B789A42EFD0AC
:101EF0007B681B781A463B681B78D31A18460C3748
:101F0000BD465DF8047B704780B485B000AF786053
:101F10000023FB607B68FB6002E0FB680133FB6031
:101F2000FB681B78002BF8D1FA687B68D31A184637
:101F30001437BD465DF8047B7047FFFF80B582B063
:101F400002AF0B4800F02EFD0A4800F02BFD0A4BB3
:101F500001930A4B0093012300220521084800F059
:101F600021FD084800F01EFD00BFBD4680BD00BF3A
:101F7000201402002C1402007414020080140200C9
:101F8000501402008C14020080B485B000AF786059
:101F900039607B681B683A68B3FBF2F101FB02F21F
:101FA0009B1AFB607B681A683B68B2FBF3F27B68A4
:101FB0001A60FB6818461437BD465DF8047B70470D
:101FC00080B485B000AF78600023FB600EE0FA6853
:101FD00013469B0013445B0018467B681B68591C22
:101FE0007A6811601B780344303BFB607B681B6898
:101FF0001B78303B092BEAD9FB6818461437BD46DD
:102000005DF8047B7047FFFF80B592B000AFF860C9
:10201000B9607A603B60002387F83B30002387F883
:10202000473000233B6107F1140300221A605A6015
:102030009A60DA601A615A619A61BB6D7B63002312
:102040003B6300233B640023FB637B6DFB63FB6D01
:1020500003F04003002B01D0944B00E0944B3B6312
:10206000FB6D03F01003002B03D0FB6D23F0010385
:10207000FB65FB6D03F00103002B01D0302300E072
:10208000202387F83B30002387F84730FB6D03F0AF
:102090000203002B46D03B6D6C2B15D03B6D6C2B97
:1020A0001CDC3B6D4C2B0FD03B6D682B16D17B6835
:1020B0001BB2002B1CDA2D2387F847307B689BB2BC
:1020C0005B429BB27B6013E07B68002B12DA2D230E
:1020D00087F847307B685B427B600BE07B68002BB6
:1020E0000ADA2D2387F847307B685B427B6003E088
:1020F00000BF02E000BF00E000BF97F847302D2B83
:1021000010D0FB6D03F00403002B03D02B2387F8C2
:10211000473007E0FB6D03F00803002B02D02023BB
:1021200087F84730FB6D03F02003002B0FD03B688E
:10213000022B02D03B68102B03D1FB6B023BFB63ED
:1021400005E03B68082B02D1FB6B013BFB630023DE
:102150003B647B68002B1BD13B6C5A1C3A6407F133
:1021600048021344302203F8382C14E03B1D396830
:102170001846FFF709FF03461A463B6B1A443B6CAF
:10218000591C3964127807F148010B4403F8382CC4
:102190007B68002BEAD13A6CBB6D9A4201DD3B6C47
:1021A000BB65FA6BBB6DD31AFB63FB6D03F01103C8
:1021B000002B19D197F84730002B10D0FB6B002B68
:1021C0000DDDFB6B013BFB6309E0FA68BB689A42DB
:1021D00002D2FB6820221A70FB680133FB60FB6BA4
:1021E0005A1EFA63002BF0DC97F84730002B0DD015
:1021F000FA68BB689A4203D2FB6897F847201A70C6
:10220000FB6B013BFB63FB680133FB60FB6D03F081
:102210002003002B43D03B68022B14D1FA68BB6823
:102220009A4202D2FB6830221A70FB680133FB60CD
:10223000FA68BB689A4202D2FB6862221A70FB6895
:102240000133FB602BE03B68082B0AD1FA68BB68BE
:102250009A4202D2FB6830221A70FB680133FB609D
:102260001DE03B68102B1AD1FA68BB689A4202D273
:10227000FB6830221A70FB680133FB60FA68BB68A8
:102280009A4209D2FB6D03F04003002B01D0582283
:1022900000E07822FB681A70FB680133FB60FB6D7D
:1022A00003F01003002B20D10FE000BF281502001F
:1022B0003C150200FA68BB689A4203D2FB6897F8A3
:1022C0003B201A70FB680133FB60FB6B5A1EFA63FC
:1022D000002BEFDC09E0FA68BB689A4202D2FB6887
:1022E00030221A70FB680133FB60BB6D5A1EBA6561
:1022F0003A6C9A42EFDB0DE0FA68BB689A4206D26C
:1023000007F110023B6C13441A78FB681A70FB68E3
:102310000133FB603B6C5A1E3A64002B0DDD7B6B76
:10232000002BE9D109E0FA68BB689A4202D2FB6847
:1023300020221A70FB680133FB60FB6B5A1EFA63A4
:10234000002BF0DCFB6818464837BD4680BD00BF57
:1023500080B592B004AFF860B9607A603B6000234A
:102360007B6300233B630023FB620023BB620023EB
:102370007B620023FB7400233B620023FB77002376
:10238000BB7700237B770023BB6100237B61FB6865
:10239000BB62FA68BB6813447B627A6AFB689A4244
:1023A00080F087824FF0FF337B627A6AFB68D31A32
:1023B000BB607EE27B681B78252B0BD0BA6A7B6AF8
:1023C0009A4203D27B681A78BB6A1A70BB6A0133DF
:1023D000BB626BE20023BB777B6801337B607B6869
:1023E0001B782D2B04D1BB7F43F01003BB77F3E7A1
:1023F0007B681B782B2B04D1BB7F43F00403BB7796
:10240000EAE77B681B78202B04D1BB7F43F00803ED
:10241000BB77E1E77B681B78232B04D1BB7F43F0BC
:102420002003BB77D8E77B681B78302B04D1BB7FB8
:1024300043F00103BB77CFE700BF4FF0FF33BB6131
:102440007B681B78303B092B05D83B1D1846FFF7EE
:10245000B7FDB86115E07B681B782A2B11D17B682A
:1024600001337B603B681A1D3A601B68BB61BB6926
:10247000002B06DABB695B42BB61BB7F43F01003F4
:10248000BB774FF0FF337B617B681B782E2B1ED10F
:102490007B6801337B607B681B78303B092B05D858
:1024A0003B1D1846FFF78CFD78610BE07B681B78BD
:1024B0002A2B07D17B6801337B603B681A1D3A6089
:1024C0001B687B617B69002B01DA00237B610023A1
:1024D0007B777B681B78682B03D07B681B786C2B21
:1024E00005D17B681B787B777B6801337B600A238F
:1024F000FB777B681B78253B532B00F2888101A278
:1025000052F823F0D52701000F2801000F28010001
:102510000F2801000F2801000F2801000F280100DB
:102520000F2801000F2801000F2801000F280100CB
:102530000F2801000F2801000F2801000F280100BB
:102540000F2801000F2801000F2801000F280100AB
:102550000F2801000F2801000F2801000F2801009B
:102560000F2801000F2801000F2801000F2801008B
:102570000F2801000F2801000F2801000F2801007B
:102580000F2801000F2801000F2801000F2801006B
:102590000F2801000F2801000F2801000F2801005B
:1025A0000F2801000F2801000F2801000F2801004B
:1025B0000F2801000F2801000F2801000F2801003B
:1025C0000F2801000F2801000F2801000F2801002B
:1025D000F72701000F2801000F2801000F28010034
:1025E0000F2801000F2801000F2801000F2801000B
:1025F0000F2801000F280100EB27010055260100DC
:10260000052801000F2801000F2801000F280100F4
:102610000F280100052801000F2801000F280100E4
:102620000F2801000F2801000F280100F1270100E9
:10263000892701000F2801000F280100C32601008F
:102640000F2801004B2801000F2801000F2801006E
:10265000FF270100BB7F03F01003002B10D109E01E
:10266000BA6A7B6A9A4202D2BB6A20221A70BB6A9B
:102670000133BB62BB69013BBB61BB69002BEFDC73
:102680003B681A1D3A601B68FB74BA6A7B6A9A42FF
:1026900002D2BB6AFA7C1A70BB6A0133BB6209E0E2
:1026A000BA6A7B6A9A4202D2BB6A20221A70BB6A5B
:1026B0000133BB62BB69013BBB61BB69002BEFDC33
:1026C000F4E03B681A1D3A601B683B623B6A002BD2
:1026D00001D1854B3B620023FB6202E0FB6A0133C0
:1026E000FB62FA6ABB699A4205D0FB6A3A6A1344F4
:1026F0001B78002BF2D17B69002B05DDFA6A7B6920
:102700009A4201DD7B69FB62BB7F03F01003002B63
:1027100010D109E0BA6A7B6A9A4202D2BB6A2022CF
:102720001A70BB6A0133BB62BB695A1EBA61FA6A8E
:102730009A42EFDB00233B6310E0BA6A7B6A9A425D
:1027400003D23B6A1A78BB6A1A70BB6A0133BB6258
:102750003B6A01333B623B6B01333B633A6BFB6A81
:102760009A42EADB09E0BA6A7B6A9A4202D2BB6A01
:1027700020221A70BB6A0133BB62BB695A1EBA6160
:10278000FA6A9A42EFDB91E0BB69B3F1FF3F0CD1EB
:102790000823BB61BB690233BB61BB7F43F02003ED
:1027A000BB77BB7F43F00103BB773B681A1D3A60E0
:1027B0001B6819467B7FBA7F03927A690292BA69D5
:1027C0000192009310230A46796AB86AFFF71CFC4D
:1027D000B8626BE0BA6A7B6A9A4202D2BB6A25226F
:1027E0001A70BB6A0133BB6260E00223FB772DE005
:1027F0000823FB772AE0BB7F43F04003BB7710231D
:10280000FB7723E0BB7F43F00203BB771DE0BA6A8E
:102810007B6A9A4202D2BB6A25221A70BB6A0133D4
:10282000BB627B681B78002B0BD0BA6A7B6A9A422A
:1028300003D27B681A78BB6A1A70BB6A0133BB6229
:1028400034E07B68013B7B6030E000BF7B7F6C2B1A
:1028500005D13B681A1D3A601B687B6316E07B7FDD
:10286000682B0ED13B681A1D3A601B689BB27B63D4
:10287000BB7F03F00203002B08D07B6B1BB27B6392
:1028800004E03B681A1D3A601B687B63F97F7B7F1D
:10289000BA7F03927A690292BA69019200930B4659
:1028A0007A6B796AB86AFFF7AFFBB8627B6801336D
:1028B0007B607B681B78002B7FF47CADBB68002BB2
:1028C0000BD0BA6A7B6A9A4203D2BB6A00221A70A2
:1028D00003E07B6A013B00221A70BA6AFB68D31AD4
:1028E00018463837BD4680BDB81402000CB480B518
:1028F00084B000AF786039600023FB6007F11C03EF
:10290000BB60BB68BA6939687868FFF721FDF86079
:10291000FB6818461037BD46BDE8804002B07047DE
:1029200080B400AF034B1B681846BD465DF8047BBE
:10293000704700BFF00EFE1F80B584B000AF786016
:10294000124B1B68FB607868FDF76BFFB860BA68D4
:10295000FB689A4201D1002313E0BB68002B0FD023
:102960000A4B1B68002B04D0084B1B681846FEF767
:1029700003F84321B868FDF761FF044ABB681360A0
:10298000FB6818461037BD4680BD00BFF00EFE1F25
:1029900080B483B000AF786000BF0C37BD465DF8EF
:1029A000047B70470FB480B582B000AF00237B601A
:1029B00007F114033B603B683A697F211048FFF739
:1029C000C7FC03467B607B687F2B01D97F237B603C
:1029D0000C4B1B68002B03D10948FFF7D9FF06E019
:1029E000084B18687B68064A0021FEF757F87B6899
:1029F00018460837BD46BDE8804004B0704700BFA8
:102A0000300FFE1FF00EFE1F80B500AF01220349FC
:102A10000348FEF737FD00BF80BD00BFC0140200B1
:102A2000FC0EFE1F80B500AF01F056FB0346002BE5
:102A300006D04FF0FF310448FEF722FF034600E0C6
:102A40000023184680BD00BFFC0EFE1F80B582B07B
:102A500000AF78607B68002B05D040F21F62084908
:102A6000084800F0FDF801F037FB0346002B02D0C8
:102A70000548FEF715FF00BF0837BD4680BD00BF03
:102A800064150200C8140200FC0EFE1F80B485B05D
:102A900000AFF860B9607A60FB68002B04D00D4B82
:102AA0001B68DA69FB681A60BB68002B04D0094B0D
:102AB0001B681A6ABB681A607B68002B04D0054B40
:102AC0001B685A6A7B681A6000BF1437BD465DF800
:102AD000047B7047280FFE1F80B584B000AF78607C
:102AE00039607B68073323F00703FB603B6823F002
:102AF0000703BB60BA68FB689A4205D84FF4D062FE
:102B00000A490B4800F0ACF8BA68FB68D31A1A46B9
:102B10007968084800F046F90346074A1360FFF752
:102B200073FF00BF1037BD4680BD00BF50150200C7
:102B3000D8140200C0140200280FFE1F80B584B014
:102B400000AF7860FFF76EFFF8600C4B1B68796888
:102B5000184600F0A9F9B860F868FFF777FF084B4E
:102B60001B68002B04D0064B1B687968B86898472F
:102B7000BB6818461037BD4680BD00BF280FFE1F3A
:102B8000F40EFE1F80B584B000AF78603960FFF7A7
:102B900049FFF860074B1B683A687968184600F0EF
:102BA000B7FAB860F868FFF751FFBB6818461037EE
:102BB000BD4680BD280FFE1F80B584B000AF786091
:102BC00039607B683A6802FB03F31846FFF7B6FFEB
:102BD000F860FB68002B08D07B683A6802FB03F3BF
:102BE0001A460021F868FEF7FFFFFB681846103709
:102BF000BD4680BD80B584B000AF78600C4B1B68CB
:102C0000002B03D00A4B1B68786898477B68002B21
:102C100009D0FFF707FFF860786800F063FBF868F9
:102C2000FFF714FF00E000BF1037BD4680BD00BFB6
:102C3000F80EFE1F80B586B000AFF860B9607A600C
:102C4000FFF7F0FE78617A68B968F868FFF71EFF51
:102C50007869FFF7FBFE00BF1837BD4680BDFFFF58
:102C600080B586B000AFF860B9607A600023FB756C
:102C70000C4B1B68002B0BD17B68BA68F9680A48BB
:102C8000FFF790FE00BFFB7DDBB2002BFBD005E021
:102C9000044B1B687A68B968F868984700BF183712
:102CA000BD4680BD2C0FFE1FF014020080B584B01D
:102CB00000AF786039607B689B6A3A689A4204D2B8
:102CC000832235493548FFF7CBFF7B68DB6A3A68DA
:102CD0009A4204D3842230493148FFF7C1FF7B6810
:102CE0009A6A3B685B681344FB603A68FB689A42E7
:102CF00024D0FB681B6803F00103002B1ED17B6806
:102D0000DB6AFA689A4219D07B681B6BFA689A42B0
:102D100002D17B683A681A63FB6800221A60FB687C
:102D20005A683B685A607B689B6A3A68D11A7B682C
:102D30009A6AFB685B6813440A469A607B689A6AE1
:102D40003B689B681344BB60BA683B689A421FD0DB
:102D5000BB681B6803F00103002B19D17B681B6B58
:102D60003A689A4202D17B68BA681A633B680022CB
:102D70001A603B685A68BB685A607B689B6ABA688D
:102D8000D11A7B689A6A3B685B6813440A469A606A
:102D900000BF1037BD4680BD9019020074150200B7
:102DA0009815020080B58AB000AFF860B9607A600B
:102DB000BB68073323F007037B627B6A38333B62CF
:102DC0003B6A073323F00703FB61BA687B6813444F
:102DD00023F00703BB61BB69202B53D9BB69203BA0
:102DE0003A6A9A424ED8BA69FB69D31A203B7B6192
:102DF00038220021786AFEF7F7FE7B6AFA680C2118
:102E0000184600F067FB7B6A254A5A617B6AFA69BB
:102E10009A617B6A7A69DA617B6A7A695A63FA69CC
:102E20007B6A9A627B6A9B6A3B617B6A23F0010240
:102E30003B691A607B6A5B6B03F110023B695A6065
:102E40003B6900229A607B6A9A6A3B695B681A4414
:102E50007B6ADA627A6A7B6ADB6A42F001021A6094
:102E60007B6A5A6B7B6ADB6A10325A607B6A5A6BE8
:102E70007B6ADB6A10329A607B6A9A6A7B6A1A63A1
:102E80007B6A08E0B968BA687B6813441A4605484B
:102E9000FFF788FD002318462837BD4680BD00BFD8
:102EA000C8150200D015020080B588B000AF786068
:102EB00039603B68002B01D1002315E17B68002BB2
:102EC00005D140F21F128A498A48FFF7C9FE7B6884
:102ED000184600F057FC03460C2B05D04FF49072B7
:102EE00083498548FFF7BCFE7B68184600F02CFC40
:102EF0000346002B05D140F221127D497F48FFF7A0
:102F0000AFFE7B68BB613B68073323F007033B6080
:102F10003B680F2B01D810233B60BB695B6B3A68A1
:102F20009A4201D90023DFE0BB691A6BBB699B6A37
:102F3000D31AFB61CFE0BB699A6AFB6913447B61DA
:102F40007B691B6803F00103002B40F0BE807B69A6
:102F50005A68FB69D31A103B3A689A4200F2B5806E
:102F60007B695A68FB69D31AA3F110023B682033CE
:102F70009A4239D3FA693B68134410333B61BB6909
:102F80009A6A3B691344FB60BB6923F00102FB684A
:102F90001A607B695A68FB685A60FB68FA699A6034
:102FA0007B693A695A60FB685A68BB695B6B10338E
:102FB0009A4206D0BB699A6AFB685B6813443A6917
:102FC0009A60BB691A6A3B68134403F11002BB693B
:102FD0001A62BB695A6ABB691B6A9A421AD2BB69F8
:102FE0001A6ABB695A6215E0BB691A6A7B695B6839
:102FF000B969896A7869411A5B1A1A44BB691A620D
:10300000BB695A6ABB691B6A9A4203D2BB691A6AD6
:10301000BB695A62BB6943F001027B691A60BB69F4
:103020001B6B7A699A4228D107E0BB699A6ABB692F
:103030001B6B5B681A44BB691A63BB691B6B1B681B
:1030400003F00103002B05D0BB691A6BBB69DB6A77
:103050009A42EAD1BB691A6BBB69DB6A9A420CD00F
:10306000BB691B6B1B6803F00103002B05D04FF4F9
:10307000C3721F492248FFF7F3FD7A693B68134486
:103080001033BA69D26A934205D94FF4C472184911
:103090001C48FFF7E5FD7B69103303F00703002BA5
:1030A00005D040F2891212491748FFF7D9FD7B6914
:1030B00003F00703002B05D04FF4C5720C491348E9
:1030C000FFF7CEFD7B6910330EE0BB699A6AFB699E
:1030D00013445B68FB61BB695A6B3B68D31AFA699E
:1030E0009A427FF628AF002318462037BD4680BDA0
:1030F0009C1902000C1602001C1602005816020051
:1031000080160200D0160200201702006C17020081
:1031100080B58CB000AFF860B9607A60FB68002BB6
:1031200005D140F2AD1268496848FFF799FDFB6888
:10313000184600F027FB03460C2B05D04FF4D7723E
:1031400061496348FFF78CFDFB68184600F0FCFA04
:103150000346002B05D140F2AF125B495D48FFF7F3
:103160007FFDFB68FB627B68073323F007037B600E
:10317000FB6A5B6B7A689A4201D900239FE07B6807
:10318000002B04D1B86800F0ADF8002397E0BB68CD
:10319000002B06D1FB6A79681846FFF785FE0346C7
:1031A0008DE0BB6803F00703002B05D04FF4E272FB
:1031B00045494948FFF754FDFB6A9B6ABA689A4241
:1031C00005D240F2C51240494448FFF749FDFB6A69
:1031D000DB6ABA689A4205D34FF4E3723A49404831
:1031E000FFF73EFDBB68103BBB62FB6A9B6ABA6A95
:1031F000D31A7B62BB6A5A687B6AD31A103B3B6264
:103200003A6A7B689A4201D1BB6858E07B681C33FC
:103210003A6A9A423CD9FB6A1A6A79683B6ACB1AC5
:103220001A44FB6A1A627A6A7B6813441033BB61E2
:10323000FB6A9A6ABB6913447B61FB6A23F0010253
:103240007B691A60BB6A5A687B695A607B697A6AD3
:103250009A60BB6ABA695A607B695A68FB6A5B6BA1
:1032600010339A4206D0FB6A9A6A7B695B68134402
:10327000BA699A60FB6A1B6B7A699A4202D2FB6A4E
:103280007A691A637969F86AFFF710FDBB6816E07E
:10329000FB6A79681846FFF707FEF861FB69002BA7
:1032A0000CD07A683B6A934228BF13461A46B96825
:1032B000F869FEF7FDFCB86800F014F8FB691846E1
:1032C0003037BD4680BD00BFAC1902000C160200AD
:1032D0001C160200581602009C170200CC170200B0
:1032E0000418020080B584B000AF78607B68002BC2
:1032F00000F083807B6803F00703002B05D040F2C9
:103300000B2240494048FFF7ABFC7B68103BFB6059
:10331000FB681B6823F00103BB60BB68002B05D171
:1033200040F2112237493948FFF79AFCFB681B68C5
:1033300003F00103002B05D140F212223149344839
:10334000FFF78EFCBB68184600F01CFA03460C2BF6
:1033500005D040F213222B492E48FFF781FCBB68B1
:10336000184600F0F1F90346002B05D14FF4057221
:1033700024492948FFF774FCBB689B6A7A689A4223
:1033800004D3BB68DB6A7A689A4205D340F21522FF
:103390001C492248FFF764FCBB689A6AFB685B68BB
:1033A00013441B6823F001031A46BB68934205D0FF
:1033B00040F2172213491A48FFF752FCBB6823F06A
:1033C0000102FB681A60BB681B6BFA689A4202D262
:1033D000BB68FA681A63BB681A6ABB689B6AF968BB
:1033E000CB1A1946FB685B68CB1A1A44BB681A6291
:1033F000F968B868FFF75AFC00E000BF1037BD4617
:1034000080BD00BFBC1902009C1702003C180200DE
:103410005418020064180200AC180200E4180200FC
:103420005819020080B483B000AF786039607B68BF
:103430001B683A685A607B681A683B681A607B6848
:103440003A681A603B687A685A6000BF0C37BD461C
:103450005DF8047B704780B483B000AF78607B6810
:103460001B687A6852685A607B685B687A68126881
:103470001A607B687A685A607B685A687B681A6051
:1034800000BF0C37BD465DF8047B704780B485B043
:1034900000AF0346FB710023FB600FE00C4AFB68A2
:1034A0001B0113441B78FA799A4204D1FB681B0173
:1034B000074A134406E0FB680133FB60FB68092BF5
:1034C000ECDD002318461437BD465DF8047B7047D9
:1034D0000008FE1F80B588B000AFF8600B467A6028
:1034E000FB720023FB61FB7A1846FFF7CFFFB86140
:1034F000BB69002B05D14FF4B77223492348FFF76E
:10350000AFFB00F03DFCBB695B68FB610FE0FB6952
:103510000C3B3B613A69FB689A4205D140F27D124F
:1035200019491B48FFF79CFBFB691B68FB61BB69E2
:103530000433FA699A42EAD100F03AFCFB7A63F06C
:103540007F03DAB2FB681A72FB68082279681846B2
:10355000FEF75CFC0F4B1B68002B03D00D4B1B6868
:10356000F868984701F046FE7861BB691A1DFB6850
:103570000C3319461046FFF755FF786901F03EFEFF
:1035800000BF2037BD4680BD601A0200CC19020082
:10359000E4190200B00FFE1F80B584B000AF786060
:1035A0007B68002B05D140F2AD120F490F48FFF7A1
:1035B00057FB0F4B1B68002B03D00D4B1B68786823
:1035C00098477B6800221A7201F014FEF8607B684D
:1035D0000C331846FFF73FFFF86801F00FFE00BFFD
:1035E0001037BD4680BD00BF701A0200F4190200FA
:1035F000B40FFE1F80B586B000AF03463960FB7183
:1036000001F0F8FD7861FEF779FA0346002B09D046
:1036100029492A48FFF7C6F940F2D112264928481D
:10362000FFF71EFB786901F0E9FDFB791846FFF70B
:103630002DFF38613B69002B05D140F2D5121E49A0
:103640002048FFF70DFB3B69DB681846FFF776FA69
:10365000F860FB68002B01D1002329E03B69DB689F
:103660001A460021F868FEF7BFFAFB68FA791A7269
:10367000FB6800225A72FB68082239681846FEF778
:10368000C5FB114B1B68002B03D00F4B1B68F86860
:10369000984701F0AFFDB8603B691A1DFB680C3319
:1036A00019461046FFF7BEFEB86801F0A7FDFB689B
:1036B00018461837BD4680BD841A0200081A020059
:1036C000301A0200CC190200B00FFE1F80B584B082
:1036D00000AF78607B68002B05D140F212221649BA
:1036E0001648FFF7BDFA7B681B7A5BB2002B05DA40
:1036F00040F2132210491248FFF7B2FA114B1B682F
:10370000002B03D00F4B1B68786898477B6800221A
:103710001A7201F06FFDF8607B680C331846FFF7F2
:103720009AFEF86801F06AFD7868FFF763FA00BF57
:103730001037BD4680BD00BF981A0200F419020080
:10374000341A0200B40FFE1F80B582B000AF78605B
:103750007B68002B05D140F2352208490848FFF765
:103760007FFA7B681B7A5BB2002B01DA012300E051
:10377000002318460837BD4680BD00BFAC1A0200C2
:10378000F419020080B582B000AF78607B68002B2E
:1037900005D14FF4127206490648FFF761FA7B68BB
:1037A0001B7A03F07F03DBB218460837BD4680BDA5
:1037B000C81A0200F419020080B586B000AF786024
:1037C0000B46FB7000233B6100237B610023FB6001
:1037D000FB781846FFF75AFEF8607B68002B02D092
:1037E000FB68002B01D1002335E001F003FDB86038
:1037F000FEF784F90346002B09D019491948FFF751
:10380000D1F840F2662216491748FFF729FAB8683E
:1038100001F0F4FC00F0B4FAFB685B687B6112E035
:103820007B690C3B3B613B69082279681846FEF7CF
:103830001FFB0346002B03D100F0BAFA3B690AE0F4
:103840007B691B687B61FB6804337A699A42E7D124
:1038500000F0AEFA002318461837BD4680BD00BF01
:10386000DC1A0200081A0200301A020080B483B089
:1038700000AF78607B687A685A607B685A687B68BA
:103880001A6000BF0C37BD465DF8047B704780B4FA
:1038900083B000AF786039607B681B683A685A6013
:1038A0007B681A683B681A607B683A681A603B68F4
:1038B0007A685A6000BF0C37BD465DF8047B7047DC
:1038C00080B483B000AF786039607B685B683A6829
:1038D0001A607B685A683B685A607B683A685A602D
:1038E0003B687A681A6000BF0C37BD465DF8047B00
:1038F000704780B483B000AF78607B681B687A68DB
:1039000052685A607B685B687A6812681A607B68E4
:103910007A685A607B685A687B681A6000BF0C3707
:10392000BD465DF8047B704780B483B000AF78601B
:103930007B681B687A689A420CBF01230023DBB2C4
:1039400018460C37BD465DF8047B704780B584B0DF
:1039500000AF78607B68002B04D15E221C491D48B3
:10396000FFF77EF97B689B6A1B78232B11D17B685C
:10397000DB691A467B689B6A9A420AD97B68DB69D5
:103980001A467B689B6A19467B68DB6A0B449A423D
:103990000BD97B6819461048FFF704F801F02AFCA0
:1039A000F860FB68002BFCD10DE07B68DB691A46F0
:1039B0007B689B6A20339A4205D87B681946074882
:1039C000FEF7F0FFFFE700BF1037BD4680BD00BF28
:1039D000541B0200EC1A0200001B02001C1B020018
:1039E00080B584B000AF78600A4B1B68184601F0C0
:1039F00019FF0346013BFB60074AFB6852F833306E
:103A0000143BBB607B68FA681A60BB6818461037C5
:103A1000BD4680BDC410FE1FC40FFE1F80B582B01E
:103A200000AF0D4B00221A8000237B6009E07B6809
:103A3000DB000A4A13441846FFF718FF7B6801337E
:103A40007B607B681F2BF2DD054B00221A6000BFF4
:103A50000837BD4680BD00BFC810FE1FC40FFE1F43
:103A6000C410FE1F80B582B000AF3B461846FFF77A
:103A7000B7FF7860094A7B681360786800F048F9FE
:103A80007B68032283F834207B681C33184601F0DE
:103A9000FEFB00BF0837BD4680BD00BFCC10FE1F37
:103AA00080B586B000AF01F0A5FBF8605C4BB3F9C0
:103AB0000030002B40F0AD805A4B1B68002B00F00B
:103AC000A88000233B613B1D1846FFF789FF786102
:103AD000554B1B6893F8343003F00703032B2CD1AC
:103AE000514B1B6893F835301A467B689A4203D2D3
:103AF0004D4B1B687B6115E04B4B1B6893F83530D1
:103B00001A467B689A420BD1474B1B6893F83430B6
:103B100003F00803002B03D1434B1B687B6101E0DA
:103B200001233B61404B1B6893F834203E4B1B68DC
:103B300022F00802D2B283F834203B4B1B687A692A
:103B40009A4251D07B68DAB2384B1A70364B1B68F8
:103B5000BB60354A7B691360354B1B68002B04D072
:103B6000334B1B687969B86898473B69002B02D0D2
:103B7000B86800F063F8786900F0CAF87B6993F8D8
:103B800034305BB223F007035BB243F003035BB254
:103B9000DAB27B6983F834207869FFF7D7FE254BCA
:103BA0001B78DBB2002B14D1234B1B68002B03D0F6
:103BB000214B1B68B8689847BB681C331A467B6961
:103BC0001C331946104601F01CFBF86801F016FB87
:103BD00023E0BB681C3318467B691C3319467B699C
:103BE000BA6801F00EFB14E00F4B1B68184600F09A
:103BF0008FF80D4B1B6893F834305BB223F007034A
:103C00005BB243F003035AB2074B1B68D2B283F88E
:103C10003420F86801F0F2FA00BF1837BD4680BDC5
:103C2000C810FE1FC410FE1FCC10FE1FD010FE1FB8
:103C3000D410FE1FE80EFE1FD810FE1F80B584B002
:103C400000AF78607B68002B05D14FF4B4722B492C
:103C50002B48FFF705F801F0CDFAF860294B1B68F7
:103C60007A689A420ED17B6893F834305BB223F0C5
:103C700007035BB243F003035BB2DAB27B6883F8FD
:103C8000342034E07B6893F834305BB223F00703D0
:103C90005BB243F002035BB2DAB27B6883F8342094
:103CA0007B6893F8343003F00803002B0CD07B685A
:103CB00093F83530DB00144A1A447B6814331946F4
:103CC0001046FFF7FDFD0BE07B6893F83530DB0015
:103CD0000D4A1A447B68143319461046FFF7D7FD86
:103CE0007B689A6B094B1B681343084A1360F8689A
:103CF00001F084FA00BF1037BD4680BD6C1B020086
:103D0000EC1A0200CC10FE1FC40FFE1FC410FE1FD1
:103D100080B584B000AF78607B68002B05D14FF48C
:103D2000CE7213491348FEF79BFF01F063FAF86067
:103D30007B6814331846FFF7DCFD7B6893F8353059
:103D4000DB000D4A13441846FFF7EEFD0346002B37
:103D500007D07B689B6BDA43084B1B681340074A0C
:103D60001360F86801F04AFA00BF1037BD4680BD05
:103D7000881B0200EC1A0200C40FFE1FC410FE1FB5
:103D800080B582B000AF01F035FA7860074BB3F927
:103D900000309BB201339BB21AB2044B1A80786890
:103DA00001F02CFA00BF0837BD4680BDC810FE1FC9
:103DB00080B582B000AF01F01DFA7860104BB3F906
:103DC00000309BB2013B9BB21AB20D4B1A800C4BD8
:103DD000B3F90030002B0CDC094B00221A80786804
:103DE00001F00CFA074B1B68002B05D0FFF758FEBB
:103DF00002E0786801F002FA00BF0837BD4680BDD6
:103E0000C810FE1FCC10FE1F80B400AF044BB3F9E6
:103E100000309BB21846BD465DF8047B704700BF7A
:103E2000C810FE1F80B483B000AF78607B687A68EA
:103E30005A607B685A687B681A6000BF0C37BD46C1
:103E40005DF8047B704780B483B000AF78607B6816
:103E50001B687A6852685A607B685B687A68126887
:103E60001A607B687A685A607B685A687B681A6057
:103E700000BF0C37BD465DF8047B704780B582B04B
:103E800000AF00F029F9786001F0B4F93860786883
:103E9000FFF73EFF7B685833184600F0DDFD7B6876
:103EA000012283F834207868FCF79AFE386801F024
:103EB000A5F9FFF7F5FD00BF0837BD4680BDFFFF40
:103EC00080B584B000AF78607B68FB60FB68002B36
:103ED00004D1872219491A48FEF7C2FEFB6893F8FD
:103EE000343003F00403002B04D188221349154811
:103EF000FEF7B6FEF868FFF745FC0346012B04D039
:103F000089220E491048FEF7ABFE01F073F9B86044
:103F1000FB686FF001021A63FB6814331846FFF761
:103F200092FFF868FFF78AFEB86801F067F9FFF7BB
:103F3000B7FD00BF1037BD4680BD00BF041E0200A4
:103F4000A41B0200B81B0200FC1B020080B586B057
:103F500002AFF860B9607A603B60FB6814331846C2
:103F6000FFF760FFFB687A681A62FB683A685A627A
:103F7000FB68BA699A62FB68FA69DA62FB68986A58
:103F8000FB68DB6A1A462321FDF72EFEFB68186AE0
:103F9000FB68596AFB689A6AFB68DB6A043B1A444F
:103FA0002C4B01F0C9F90246FB68DA6197F8203022
:103FB0001F2B04D9C22228492848FEF751FEFB686E
:103FC00097F8202083F83620FB6897F8202083F8A4
:103FD0003520FB6800229A63FB683C331846FFF7E4
:103FE00021FFFB6800225A64FB6800229A64FB6888
:103FF000002283F84C20FB687A6A1A65FB687A6AAB
:104000005A65FB6800221A63FB68002283F834209B
:10401000FB680022C3F88420FB680022C3F88820D4
:10402000FB6803F15800F968002301930023009313
:10403000FB680B4A00F0D2FC0A4B1B68002B03D034
:10404000084B1B68F8689847002318461037BD4690
:1040500080BD00BF7D3E0100141E0200401C020016
:10406000C13E0100E410FE1F80B588B004AFF860C7
:10407000B9607A603B60FB68002B05D14FF4A272F7
:1040800012491348FEF7ECFDBB69002B05D140F245
:1040900045120E490F48FEF7E3FDBA680121F868A2
:1040A000FFF718FA7B6A039397F820300293FB69B5
:1040B0000193BB6900933B687A68B968F868FFF7B9
:1040C00045FF034618461037BD4680BD241E02003A
:1040D000A41B0200641C020080B400AF034B1B68E9
:1040E0001846BD465DF8047B704700BFCC10FE1F2C
:1040F00080B582B000AF78607B68002B05D140F2BC
:1041000077121C491C48FEF7ABFD7B6893F83430EE
:1041100003F00703002B05D04FF4BC721549174874
:10412000FEF79EFD7868FFF72DFB0346012B05D0B7
:1041300040F279120F491248FEF792FD7B6893F81E
:1041400035301A46012393401A467B689A637B6890
:10415000042283F83420786800F028FBFFF7BCFFC6
:104160000346002B01D0FFF79BFC002318460837BD
:10417000BD4680BD341E0200A41B02007C1C020050
:10418000FC1B020080B584B000AF78607B68002B18
:1041900005D14FF4D1722E492E48FEF761FD7868A3
:1041A000FFF7F0FA0346012B05D040F2A31228498D
:1041B0002948FEF755FD7868FFF7C6FA0346002B3D
:1041C00005D14FF4D27222492448FEF749FD7B689D
:1041D00093F8343003F00703012B01D1002332E0C0
:1041E0007B6893F8343003F00703002B02D0786823
:1041F000FFF78EFD00F0FEFFF8607B68583318462D
:1042000000F02AFC7B68012283F834207B685B6C19
:10421000002B11D07B685B6C1846FFF7B3FA03469E
:10422000032B09D17B685B6CBB607968B868FDF7CC
:1042300061F97B6800225A647868FCF7D1FCF86861
:1042400000F0DCFF002318461037BD4680BD00BFDC
:10425000481E0200A41B0200FC1B0200B41C02004A
:1042600080B58AB004AFF860B9607A603B60F968E5
:104270000120FFF7BFF978617B69002B01D1002392
:104280001BE03868FEF75AFC38613B69002B04D10B
:104290007869FFF71BFA00230FE07B6A039397F816
:1042A000203002933B6801933B6900937B68BA68B6
:1042B000F9687869FFF74AFE7B6918461837BD46EA
:1042C00080BDFFFF80B584B000AF78607B68002BB5
:1042D00005D140F213222E492E48FEF7C1FC786822
:1042E000FFF750FA0346012B05D04FF40572284919
:1042F0002948FEF7B5FC7868FFF726FA0346002B3D
:1043000005D040F2152222492448FEF7A9FC7B681B
:1043100093F8343003F00703012B01D1002332E07E
:104320007B6893F8343003F00703002B02D07868E1
:10433000FFF7EEFC00F05EFFF8607B68583318462C
:1043400000F08AFB7B68012283F834207B685B6C79
:10435000002B11D07B685B6C1846FFF713FA0346FD
:10436000032B09D17B685B6CBB607968B868FDF78B
:10437000C1F87B6800225A647868FCF731FCF86861
:1043800000F03CFF002318461037BD4680BD00BF3B
:104390005C1E0200A41B0200FC1B0200E41C0200C5
:1043A00080B58AB000AF78607B68002B02D16FF0D7
:1043B000090396E0FFF790FE78627B6A002B05D137
:1043C0004FF41B7249494A48FEF74AFC786AFFF7E6
:1043D000D9F90346012B05D040F26D2243494548E7
:1043E000FEF73EFCFDF79EFB386200F003FFF8612C
:1043F000FFF70AFD0346002B09D03C493E48FEF773
:10440000D1FA4FF41C7239493C48FEF729FC3B6A4B
:10441000012B09D135493A48FEF7C4FA4FF41C7212
:1044200032493648FEF71CFC00F0E4FEB861FFF7A5
:1044300053FE0346002B09D12C493248FEF7B2FA4D
:104440004FF41C7229492D48FEF70AFC00F0D2FEF9
:104450007861FDF753FB0346002B09D023492A4816
:10446000FEF7A0FA4FF41C7220492448FEF7F8FB2F
:10447000786900F0C3FEB86900F0C0FEF86900F08A
:10448000BDFE00F0B7FE38617B6A00221A6300218E
:10449000786A00F01DF9F860FB68002B1DD17B6A7B
:1044A00058333A1D0021184600F080FC7B6A5833CF
:1044B000184600F019FB386900F0A0FE7B6A6FF027
:1044C00008021A63FFF7ECFA7B6A1B6B13F1020F09
:1044D00006D17B6A00221A6302E0386900F08EFE82
:1044E000FB6818462837BD4680BD00BF701E02001D
:1044F000A41B0200FC1B0200201D02004C1D020038
:10450000501D0200781D0200B01D020080B582B06F
:1045100000AF78607868FFF743FF03461846083716
:10452000BD4680BD80B584B000AF78607868FCF788
:104530006DF8F860F868FFF733FF03461846103748
:10454000BD4680BD80B586B000AFF860B9607A60C6
:10455000FB68002B05D140F24A3237493748FEF755
:104560007FFBF868FFF70EF90346012B05D040F2F8
:104570004B3231493248FEF773FBBB68022B09D03E
:10458000BB68022B52DCBB68002B34D0BB68012B0C
:1045900036D04BE000F02EFE3861FB6893F83430E3
:1045A00003F00703022B14D1F868FFF7B1FB7B6817
:1045B0001A78FB6883F83520FB6893F835301A4683
:1045C000012393401A46FB689A63F868FFF736FBAD
:1045D0000DE07B681A78FB6883F83520FB6893F858
:1045E00035301A46012393401A46FB689A633869AE
:1045F00000F004FE1BE0F868FFF77AFD034617E0C1
:104600006FF009037B61F868FFF79EF80346012B02
:1046100004D1F868FFF7B6FD786103E0F868FFF7AA
:1046200051FE7861FFF73CFA7B6901E000BF00238F
:1046300018461837BD4680BD801E0200A41B02002C
:10464000FC1B020080B584B000AF7860396007239E
:10465000FB737B68002B05D140F2AD3219491A4833
:10466000FEF7FEFA3B68022B0FD03B68022B0FDCF3
:104670003B68002B03D03B68012B03D008E00423E8
:10468000FB730CE00623FB7309E00723FB7306E0D2
:1046900040F2BA320B490D48FEF7E2FA00BF7B68E0
:1046A00093F834305BB223F007035AB297F90F3016
:1046B00013435BB2DAB27B6883F8342000BF103753
:1046C000BD4680BD941E0200A41B02004C1D0200CA
:1046D00080B584B000AF786039607B68002B05D16D
:1046E00040F2D6322C492D48FEF7BAFA7868FFF727
:1046F00049F80346012B05D040F2D7322649284815
:10470000FEF7AEFAFFF7E8FC02467B68934205D05D
:104710004FF4767220492348FEF7A2FA7B6893F89B
:10472000343003F00703FB60FB68022B05D0FB6805
:10473000032B02D04FF0FF3329E000F05BFDB8609F
:10474000FB68032B0BD1FFF7C7FC02467B68934243
:1047500005D04FF47A7210491248FEF781FA786852
:10476000FFF7D6FA39687868FFF76CFF7B68583333
:10477000184600F0CFFAB86800F040FD0A4B1B68FD
:10478000002B03D0084B1B68786898470023184615
:104790001037BD4680BD00BFB01E0200A41B020042
:1047A000FC1B0200E81D0200DC10FE1F80B584B077
:1047B00000AF78607B68002B05D140F216421D499E
:1047C0001D48FEF74DFA7868FEF7DCFF0346012B23
:1047D00005D040F2174217491848FEF741FA7B68A6
:1047E00093F8343003F00403002B02D14FF0FF3371
:1047F0001BE000F0FFFCF8607B6814331846FFF7FD
:1048000022FB7B685833184600F084FAF86800F001
:10481000F5FC7868FFF712FA094B1B68002B03D0F0
:10482000074B1B6878689847002318461037BD4629
:1048300080BD00BFCC1E0200A41B0200FC1B0200B6
:10484000E010FE1F80B483B000AF78607B687A68A8
:104850005A607B685A687B681A6000BF0C37BD4697
:104860005DF8047B704780B483B000AF7860396036
:104870007B681B683A685A607B681A683B681A60F4
:104880007B683A681A603B687A685A6000BF0C37E8
:10489000BD465DF8047B704780B483B000AF78609C
:1048A0007B681B687A6852685A607B685B687A68C4
:1048B00012681A607B687A685A607B685A687B68FD
:1048C0001A6000BF0C37BD465DF8047B704780B4AA
:1048D00083B000AF78607B681B687A689A420CBF2F
:1048E00001230023DBB218460C37BD465DF8047B7C
:1048F000704780B586B000AFF860B9607A603B6001
:10490000FB6897F820205A72FB685B7A23F001035A
:10491000DAB2FB685A72FB68BA68DA61FB687A68D7
:104920001A62FB6800229A62FB683A685A620023A6
:104930007B610BE07B690233DB00FA6813440433CC
:104940001846FFF77FFF7B6901337B617B69002B92
:10495000F0DD00BF00BF1837BD4680BD80B584B014
:1049600000AF7860396000F045FCF8607868FFF7C8
:10497000AEFF0346002B0CD17B681B68143BBB6069
:10498000BB689A6A3B681A60F86800F037FC00233D
:1049900004E0F86800F032FC4FF0FF33184610379F
:1049A000BD4680BD80B584B000AF78600023FB6059
:1049B0000BE0FB680233DB007A68134404331846CB
:1049C000FFF76AFFFB680133FB60FB68002BF0DD3B
:1049D00000BF00BF1037BD4680BDFFFF80B586B069
:1049E00002AFF860B9607A603B60FB68002B05D1CC
:1049F0004FF4887214491548FEF732F97B68002B92
:104A000005D140F2111210491148FEF729F9BB698E
:104A10006FF00042934205D34FF489720A490D4862
:104A2000FEF71EF9FB68BA680A211846FEF752FD28
:104A30003B7F0093BB693A687968F868FFF759FFD4
:104A400000BF1037BD4680BDF01F0200E01E02000F
:104A5000F41E0200081F020080B584B000AF786029
:104A60007B68002B05D140F227121B491B48FEF73B
:104A7000F7F87B681846FEF785FE03460A2B05D03B
:104A80004FF4947214491648FEF7EAF87B6818460A
:104A9000FEF75AFE0346002B05D140F229120E49BB
:104AA0001048FEF7DDF800F0A5FBF8607868FFF726
:104AB00079FF7B685B7A23F00103DAB27B685A7274
:104AC000F86800F09BFB7B681846FEF765FD002345
:104AD00018461037BD4680BD00200200E01E0200CF
:104AE000201F02005C1F020080B58AB000AF786012
:104AF0007B68002B05D14FF4D1727D497D48FEF7CC
:104B0000AFF87B681846FEF73DFE03460A2B05D03A
:104B100040F2A31276497848FEF7A2F80023FB6121
:104B200000F068FB78617868FFF73CFF7B685B7A90
:104B300023F00103DAB27B685A72704B1B68002BBA
:104B400004D06E4B1B687A6810469847FBF714FD3B
:104B500002467B685B6A1A447B689A627B685B7A70
:104B600003F00403002B02D0654B3B6201E0654B70
:104B70003B623B6ABB6000237B6255E07B6A9B0023
:104B800007F12802134453F8203C1B683B617B6A01
:104B9000DB0014335B423A691344FB60FB689A6A9A
:104BA0007B689B6A9A4209D0FB689A6A7B689B6A19
:104BB000D31A6FF0004293421FD300E000BF7B6A1C
:104BC0009B0007F12802134453F8203C1A687B6AC3
:104BD0009B0007F128010B4443F8202C7B6A9B00C3
:104BE00007F12802134453F8202C7B6ADB00396A52
:104BF0000B445B689A42C1D100E000BF7B6A002B86
:104C00000FD07B6A9B0007F12802134453F8202C35
:104C10007B6A013308329B0007F128010B4443F8FB
:104C2000202C7B6A01337B627B6A002BD6D0364B0B
:104C30001B680133344A1360334B1B68BB61BA688D
:104C40007B68143319461046FFF70DFE02237B6282
:104C50001EE0BB6903F00303002B1DD17B6AC3F187
:104C600001039B0007F12802134453F8200C7B6AD0
:104C7000C3F101030233DB007A681344043319469D
:104C8000FFF7F1FDBB699B08BB617B6A01337B6267
:104C90007B6A012BDDD900E000BF7B685B7A43F0C3
:104CA0000103DAB27B685A727B685B7A03F0040313
:104CB000002B0FD0154B1B78012B0BD1144B93F805
:104CC000343003F00403002B04D01148FFF76EFDCD
:104CD0000123FB61786900F091FAFB69002B01D098
:104CE000FEF7DEFE002318462837BD4680BD00BF14
:104CF00010200200E01E0200201F0200BC0FFE1F59
:104D0000F010FE1FE810FE1F9013FE1FA008FE1FEC
:104D1000F810FE1F80B584B000AF786000F06AFA2A
:104D2000F8607B68002B05D140F21D221B491C480E
:104D3000FDF796FF7B681846FEF724FD03460A2B15
:104D400005D040F21E2215491648FDF789FF7B6801
:104D50005B7A03F00103002B05D1F86800F04EFAEE
:104D60004FF0FF3316E0104B1B68002B04D00E4BA6
:104D70001B687A68104698477868FFF713FE7B68CF
:104D80005B7A23F00103DAB27B685A72F86800F0AC
:104D900035FA002318461037BD4680BD202002009A
:104DA000E01E0200201F0200C00FFE1F80B586B06B
:104DB00000AFF860B9607A60FB68002B05D140F263
:104DC000412241494148FDF74BFFFB681846FEF779
:104DD000D9FC03460A2B05D040F242223A493C480E
:104DE000FDF73EFF00F006FA7861BB68092B62D838
:104DF00001A252F823F000BF2B4E0100214E01000A
:104E00004D4E01005D4E01006D4E0100894E0100C6
:104E1000934E01009D4E0100A54E0100AF4E0100D2
:104E2000FB685A6A7B681A6046E07B681B686FF013
:104E30000042934205D34FF4137223492548FDF7EE
:104E40000FFF7B681A68FB685A6235E0FB685B7A83
:104E500023F00203DAB2FB685A722DE0FB685B7A3A
:104E600043F00203DAB2FB685A7225E0FB685B7A12
:104E700003F00103002B03D07B6801221A601BE0C2
:104E80007B6800221A6017E0FB689A6A7B681A60E8
:104E900012E0FB68DA697B681A600DE07A68FB68EB
:104EA000DA6109E0FB681A6A7B681A6004E0FB6853
:104EB0007A681A6200E000BF786900F09FF9002369
:104EC00018461837BD4680BD30200200E01E0200A3
:104ED000201F0200C01F020080B586B000AF3B1D3E
:104EE0001846FFF7AFFCFBF747FB786100F082F94B
:104EF00038615FE0374B1B68143BFB60FB689B6AC3
:104F00007A69D31A6FF0004293425AD2324B1B682F
:104F1000002B03D0304B1B68F8689847F868FFF700
:104F200041FDFB685B7A03F00203002B06D1FB68AE
:104F30005B7A23F00103DAB2FB685A72FB6803F173
:104F400014023B1D11461846FFF78DFCFB68DB6918
:104F5000FA68126A10469847FBF70EFB78611F4B00
:104F60001B68002B03D01D4B1B68F86898473B1D3E
:104F70001846FFF7ACFC0346002B00D01AE0FB6894
:104F800014331846FFF788FCFB685B7A03F00203D2
:104F9000002B0FD0FB685B7A03F00103002B09D0D4
:104FA000FB685B7A23F00103DAB2FB685A72F86897
:104FB000FFF79AFD0748FFF78AFC0346002B99D0BC
:104FC00000E000BF386900F019F900BF1837BD468E
:104FD00080BD00BFE810FE1F8813FE1F8C13FE1F4C
:104FE00080B586B000AF3B1D1846FFF72BFC00F0E4
:104FF00001F978616BE03D4B1B68143B3B61FBF7AB
:10500000BBFAF8603B699B6AFA68D31A6FF00042FA
:10501000934263D2364B1B68002B03D0344B1B6882
:10502000386998473869FFF7BDFC3B695B7A03F044
:105030000203002B06D13B695B7A23F00103DAB24D
:105040003B695A723B6903F114023B1D1146184635
:10505000FFF709FC274B00221A70786900F0CEF8A0
:105060003B69DB693A69126A10469847224B1B6814
:10507000002B03D0204B1B683869984700F0BAF822
:1050800078611C4B01221A703B1D1846FFF71FFC6C
:105090000346002B00D01AE03B6914331846FFF793
:1050A000FBFB3B695B7A03F00203002B0FD03B69EB
:1050B0005B7A03F00103002B09D03B695B7A23F094
:1050C0000103DAB23B695A723869FFF70DFD0748F0
:1050D000FFF7FDFB0346002B8DD000E000BF786991
:1050E00000F08CF800BF1837BD4680BDF010FE1FE1
:1050F0008813FE1FA008FE1F8C13FE1F80B584B00E
:1051000000AF786007F1080319461248FFF726FC44
:105110000346002B09D0FEF7DFFF034602211846A5
:10512000FFF7D6FAFEF7BCFC11E0FBF725FAF860B2
:10513000BA68FB68D31A6FF00042934207D2BA688C
:10514000FB68D31ABB60BB681846FFF7DFF9FFF7AF
:1051500047FFD7E7F010FE1F80B582B000AF0023F5
:105160007B6009E07B68DB00074A13441846FFF7C1
:1051700069FB7B6801337B607B68002BF2D000BF4A
:1051800000BF0837BD4680BDE810FE1F80B586B061
:1051900004AF00237B6009E07B68DB00104A134406
:1051A0001846FFF74FFB7B6801337B607B68002B61
:1051B000F2D00A230393042302934FF40073019364
:1051C000084B00930023084A08490948FEF74CFFA2
:1051D0000748FEF78DFF00BF0837BD4680BD00BF02
:1051E000F010FE1F8811FE1FFD500100E81F020095
:1051F000F810FE1FEFF3108072B6704780F310882E
:105200007047464A1368012B04D04FF00103136026
:10521000434A1060434A116043484FF08051016097
:105220007047EFF3108272B63C48016851B34FF0FB
:10523000000101603A48016891B1EFF309811EF065
:10524000100F08BF21ED108B21E9F00F4FF0000483
:105250001EF0100F08BF012441F8044D00680160E2
:1052600030490968096808C9B1E8F00F002B18BF78
:10527000B1EC108B81F309884EF0100E002B18BF93
:105280002EF0100E82F310884EF0040E7047254960
:105290000860EFF3148222F0040282F3148820499C
:1052A0004FF0000008601D494FF0010008601F48E2
:1052B0001F49D0F8002041EA020101601A484FF06E
:1052C000805101601B480068006800BF80F30888B7
:1052D00061B662B6BFF34F8FBFF36F8F704700BFE9
:1052E000EFF308801EF0040F01D0EFF3098020E9EE
:1052F000F00F40F804ED40F804ED1EF0040F02D06A
:1053000080F3098801E080F3088800B500F0BAF95D
:105310005DF804EB4EF0040E704700009C13FE1F76
:105320009413FE1F9813FE1F04ED00E020ED00E033
:105330000000FFFF08ED00E080B489B000AFF86026
:10534000B9607A603B607B680433BB61BB6923F062
:105350000703BB61BB69443BBB61BB697B61002345
:10536000FB6108E0FB699B007A691344154A1A60E7
:10537000FB690133FB61FB69102BF3D9BA687B69C8
:105380005A627B6900229A627B690022DA627B6939
:1053900000221A637B6900225A633A687B699A6328
:1053A000FA687B69DA637B694FF080721A647B6903
:1053B00000221A60BB6918462437BD465DF8047B9D
:1053C000704700BFEFBEADDE80B500AF2548FDF7EA
:1053D000E9FA254B1B889BB219462448FDF7E2FAEF
:1053E000214B1B889BB203F00103002B02D0204805
:1053F000FDF7D8FA1C4B1B889BB203F00203002B6D
:1054000002D01C48FDF7CEFA174B1B889BB203F065
:105410000403002B02D01848FDF7C4FA124B1B8876
:105420009BB203F00803002B02D01448FDF7BAFA30
:105430000D4B1B889BB203F48073002B02D01048E5
:10544000FDF7B0FA084B1B889BB203F40073002BE6
:1054500002D00C48FDF7A6FA0B48FDF7A3FA00BFEF
:1054600080BD00BF442002002AED00E0542002006D
:105470006C20020078200200842002008C200200B0
:1054800094200200A0200200AC20020080B500AFF2
:105490002648FDF787FA264B1B78DBB219462548CC
:1054A000FDF780FA224B1B78DBB203F00103002BDF
:1054B00002D02148FDF776FA1D4B1B78DBB203F0D2
:1054C0000203002B02D01D48FDF76CFA184B1B7825
:1054D000DBB203F00403002B02D01948FDF762FA97
:1054E000134B1B78DBB203F00803002B02D01548E6
:1054F000FDF758FA0E4B1B78DBB203F01003002BBC
:1055000002D01148FDF74EFA094B1B78DBB25BB2B3
:10551000002B06DA0D4B1B6819460D48FDF742FAC1
:1055200002E00C48FDF73EFA00BF80BDB02002004B
:1055300029ED00E0BC200200D4200200E02002009F
:10554000EC200200FC2002000821020038ED00E0FF
:1055500010210200AC20020080B500AF2148FDF709
:1055600021FA214B1B78DBB219462048FDF71AFAC5
:105570001D4B1B78DBB203F00103002B02D01C484B
:10558000FDF710FA184B1B78DBB203F00203002B77
:1055900002D01848FDF706FA134B1B78DBB203F074
:1055A0000803002B02D01448FDF7FCF90E4B1B78C2
:1055B000DBB203F01003002B02D01048FDF7F2F924
:1055C000094B1B78DBB25BB2002B06DA0C4B1B6875
:1055D00019460C48FDF7E6F902E00B48FDF7E2F941
:1055E00000BF80BD2021020028ED00E03421020030
:1055F0004C210200582102006421020070210200A7
:1056000034ED00E07C210200AC20020080B500AF48
:10561000164B1B6803F00203002B02D01448FDF761
:10562000C1F9124B1B6803F08043002B14D0114BBF
:105630001B78DBB2002B01D0FFF728FF0E4B1B7845
:10564000DBB2002B01D0FFF787FF0C4B1B889BB20E
:10565000002B01D0FFF7B8FE044B1B68002B02DAC9
:105660000748FDF79FF900BF80BD00BF2CED00E0AB
:105670008C21020029ED00E028ED00E02AED00E099
:10568000A421020080B586B000AF78607B68283323
:105690007B617B6804333B61474B1B68002B07D061
:1056A000454B1B6878699847F860FB68002B7ED0F3
:1056B0003B691B6C19464148FDF774F93B695B6A0D
:1056C00019463F48FDF76EF93B699B6A19463D480C
:1056D000FDF768F93B69DB6A19463B48FDF762F95B
:1056E0003B691B6B19463948FDF75CF93B695B6800
:1056F00019463748FDF756F93B699B681946354806
:10570000FDF750F93B69DB6819463348FDF74AF964
:105710003B691B6919463148FDF744F93B695B69F0
:1057200019462F48FDF73EF93B699B6919462D48FC
:10573000FDF738F93B69DB6919462B48FDF732F96B
:105740003B691B6A19462948FDF72CF93B695B6BDD
:1057500019462748FDF726F93B699B6B19462548F2
:10576000FDF720F93B69DB6B19462348FDF71AF971
:105770007B681B6803F00403002B09D0FEF7ACFC28
:10578000034619461D48FDF70DF900F0EDFC02E057
:105790001B48FDF707F97B681B6803F01003002B1B
:1057A00002D11848FDF7FEF8FFF730FFFEE700BF13
:1057B0001837BD4680BD00BFA013FE1FB4210200F4
:1057C000C4210200D4210200E4210200F4210200DD
:1057D00004220200142202002422020034220200C9
:1057E00044220200542202006422020074220200B9
:1057F0008422020094220200A4220200B4220200A9
:10580000D4220200F022020080B400AF034B044A0D
:105810001A6000BFBD465DF8047B70470CED00E0E8
:105820000400FA0580B483B000AF78607B6893FA17
:10583000A3F3B3FA83F37A68002A01D14FF0FF3360
:10584000013318460C37BD465DF8047B704780B4C1
:1058500085B000AF786039600023FB8123E07B686E
:105860005A1C7A601B781B021AB2B7F90E305340EB
:105870001BB2FB8108237B73B7F90E30002B09DACA
:10588000FB895B001BB283F4815383F001031BB2DD
:10589000FB8102E0FB895B00FB817B7B013B7B732F
:1058A0007B7B002BE8D13B68013B3B603B68002BD6
:1058B000D5DAFB8918461437BD465DF8047B70477E
:1058C00080B582B000AF78603960054B1B68143337
:1058D0001846FBF7D3FC034618460837BD4680BD83
:1058E000A413FE1F80B584B000AF786039607B6878
:1058F000586B7B681A6901230021FBF78BF803467C
:10590000012B03D17B681B691B781BE07B68143378
:105910003A6811461846FBF7A1FC0346002B01D05C
:1059200000230FE07B68586B7B681A690123002114
:10593000FBF770F80346FB60FB68012BE6D17B6840
:105940001B691B7818461037BD4680BD80B584B0F2
:1059500000AF786039607B681B690133BB6000234E
:10596000FB607B68586BBA68FB68D1183A68FB68C3
:10597000D31A0A460021FBF74DF803461A46FB6886
:105980001344FB60FA683B689A4201D3FB680AE063
:105990007B68143340F6B8311846FBF75FFC0346CA
:1059A000002BDED0FB6818461037BD4680BD80B5A1
:1059B00082B000AF78600B46FB707B68586BFA1CB6
:1059C00001230021FBF76AF8012318460837BD467A
:1059D00080BD90B589B000AF786039607B680122E6
:1059E0001A730023FB611AE043217868FFF7DFFF99
:1059F00040F6B8317868FFF775FF0346FB75FB7D0D
:105A0000012B02D18523BB610DE0FB7D022B03D16D
:105A100040F20543BB6106E0FB690133FB613B6873
:105A2000FA699A42E0D33B68FA699A4202D16FF070
:105A30006F0372E00023FB61FAF79EFD38610DE011
:105A4000BB69013B19467868FFF780FF03461A4699
:105A5000FB691344FB610520FEF764FDFAF78CFD3A
:105A600004466420FAF7D2FD02463B6913449C4287
:105A700004D8BB69013BFA699A42E1D3BB69013B97
:105A8000FA699A4202D06FF0730346E07B681B69A3
:105A900001331B78002B05D17B681B6902331B780F
:105AA000FF2B02D06FF0710337E07B681A69BB6986
:105AB000023B13441B789BB21B029AB27B681969A4
:105AC000BB69013B0B441B789BB21343FB817B6892
:105AD0001B69DA1CBB69053B19461046FFF7B7FE88
:105AE0000346BB81FA89BB899A4202D06FF07203E8
:105AF00013E07B685B68002B0ED07B685B687A687C
:105B00001269D11CBA69053A786898470346062B92
:105B100002D06FF0740300E0002318462437BD461E
:105B200090BD80B588B000AFF860B9607A60BB689E
:105B30000433FB61F969F868FFF708FF0346BB61AE
:105B4000BA69FB699A4202D06FF0730356E0FB68B2
:105B50001B6901331B781A46FB681B6902331B78EB
:105B60001344FF2B02D06FF0710347E0FB681B7BEF
:105B7000022B0AD1FB681B6901331B78002B04D16F
:105B80007B6800221A70002338E0FB6803221A7336
:105B9000FB681A69FB69013B13441B789BB21B022B
:105BA0009AB2FB681969FB690B441B789BB21343DB
:105BB000FB82FB681B690333BA6811461846FFF77E
:105BC00046FE03461A46FB8A934202D06FF07203E8
:105BD00014E0FB681B68002B0CD0FB681B68FA689C
:105BE0001269D11CBA68F868984703461A467B6860
:105BF0001A7002E07B6806221A70002318462037CC
:105C0000BD4680BD80B588B000AF78600621786859
:105C1000FFF7CDFE43217868FFF7C9FE7B680222BB
:105C20001A730023FB6140F6B8317868FFF75AFE1B
:105C30000346FB73FB7B042B0DD0042B0DDC012BE7
:105C400002D0022B03D008E08023BB6113E04FF4A5
:105C50008063BB610FE0002343E0FB690133FB611C
:105C6000FB69052B02D96FF070033AE015217868C3
:105C7000FFF79DFE34E007F10F031A46B969786813
:105C8000FFF74FFF38613B69002B0CD0FB690133F4
:105C9000FB61FB69052B01D93B6922E0152178687E
:105CA000FFF785FE1CE00023FB61FB7B062B11D078
:105CB000182B14D100237B6106E018217868FFF7C8
:105CC00076FE7B6901337B617B69062BF5D96FF02A
:105CD000740306E006217868FFF769FE00E000BF64
:105CE000A1E718462037BD4680BD80B586B000AF1D
:105CF00078607B6804221A737B689B68002B07D04E
:105D00007B689B687A681269D11C80227868984702
:105D100015217868FFF74BFE40F6B8317868FFF739
:105D2000E1FD0346FB74FB7C042B02D06FF0700393
:105D300079E006217868FFF73AFE43217868FFF79B
:105D400036FE40F6B8317868FFF7CCFD0346FB74A9
:105D5000FB7C012B02D185237B6109E0FB7C022BBC
:105D600003D140F205437B6102E06FF070035AE01B
:105D700084217868FFF7EAFD0346FB60FB68842B0B
:105D800002D06FF073034EE07B681B6901331B7810
:105D9000002B05D17B681B6902331B78FF2B02D0D7
:105DA0006FF071033FE07B681B6983331B789BB204
:105DB0001B029AB27B681B6984331B789BB2134326
